{
  "transactions": [
    {
      "hash": "0xedc82a6b9f49b5e5c076b173f5e584a376e82548f8aab531ff4c94cdec0a3538",
      "transactionType": "CREATE",
      "contractName": "DevOpsTools",
      "contractAddress": "0xb0b6b5Fd05c3DF3Aa46e41453FCCd442275e70fb",
      "function": null,
      "arguments": null,
      "transaction": {
        "type": "0x02",
        "from": "0x057a56e02c068a1ea07f0212f0361b9fa5a4a65a",
        "gas": "0xebb6e",
        "data": "0x610c7861003a600b82828239805160001a60731461002d57634e487b7160e01b600052600060045260246000fd5b30600052607381538281f3fe730000000000000000000000000000000000000000301460806040526004361061006c5760003560e01c806326dceeb7146100715780632aa1c696146100ae5780633a768463146100e5578063a6066fa514610100578063d76ca83d14610108578063e374cdf11461011b575b600080fd5b81801561007d57600080fd5b5061009161008c366004610897565b61013b565b6040516001600160a01b0390911681526020015b60405180910390f35b6100d86040518060400160405280600b81526020016a0b8bd89c9bd85918d85cdd60aa1b81525081565b6040516100a59190610979565b610091737109709ecfa91a80626ff3989d68f67f5b1dd12d81565b6100d8610507565b6100d861011636600461098c565b610523565b81801561012757600080fd5b506100916101363660046109c1565b6106da565b600061014683610523565b925061015182610523565b60408051600180825281830190925291935060009190816020015b606081526020019060019003908161016c579050509050604051806040016040528060038152602001621c1dd960ea1b815250816000815181106101b2576101b2610a06565b6020908102919091010152604051638916046760e01b8152600090737109709ecfa91a80626ff3989d68f67f5b1dd12d906389160467906101f7908590600401610a1c565b6000604051808303816000875af1158015610216573d6000803e3d6000fd5b505050506040513d6000823e601f3d908101601f1916820160405261023e9190810190610ab5565b60408051600580825260c0820190925291925060009190816020015b606081526020019060019003908161025a579050509050604051806040016040528060048152602001630c4c2e6d60e31b815250816000815181106102a1576102a1610a06565b602002602001018190525081856040516020016102bf929190610afe565b604051602081830303815290604052816001815181106102e1576102e1610a06565b6020026020010181905250878160028151811061030057610300610a06565b602090810291909101015260405163348051d760e11b815260048101889052737109709ecfa91a80626ff3989d68f67f5b1dd12d90636900a3ae90602401600060405180830381865afa15801561035b573d6000803e3d6000fd5b505050506040513d6000823e601f3d908101601f191682016040526103839190810190610ab5565b8160038151811061039657610396610a06565b602002602001018190525081866040516020016103b4929190610b2d565b604051602081830303815290604052816004815181106103d6576103d6610a06565b6020908102919091010152604051638916046760e01b8152600090737109709ecfa91a80626ff3989d68f67f5b1dd12d9063891604679061041b908590600401610a1c565b6000604051808303816000875af115801561043a573d6000803e3d6000fd5b505050506040513d6000823e601f3d908101601f191682016040526104629190810190610ab5565b90506104916040518060400160405280600c81526020016b2932ba3ab937102230ba309d60a11b81525061072c565b61049a81610772565b60006104a582610b69565b60601c905080156104bc5794506104ff9350505050565b60405162461bcd60e51b8152602060048201526014602482015273139bc818dbdb9d1c9858dd0819195c1b1bde595960621b604482015260640160405180910390fd5b949350505050565b604051806060016040528060318152602001610c126031913981565b80516060908290600090815b835181101561057e5783818151811061054a5761054a610a06565b6020910101516001600160f81b031916600160fd1b1461056c5780925061057e565b8061057681610bbb565b91505061052f565b5082515b80156105d85783610594600183610bd4565b815181106105a4576105a4610a06565b6020910101516001600160f81b031916600160fd1b146105c6578091506105d8565b806105d081610be7565b915050610582565b508282815181106105eb576105eb610a06565b01602001516001600160f81b031916601760f91b036106125761060f600183610bfe565b91505b600061061e8383610bd4565b67ffffffffffffffff811115610636576106366107d2565b6040519080825280601f01601f191660200182016040528015610660576020820181803683370190505b50905060005b81518110156106d0578461067a8286610bfe565b8151811061068a5761068a610a06565b602001015160f81c60f81b8282815181106106a7576106a7610a06565b60200101906001600160f81b031916908160001a905350806106c881610bbb565b915050610666565b5095945050505050565b600061072383836040518060400160405280600b81526020016a0b8bd89c9bd85918d85cdd60aa1b815250604051806060016040528060318152602001610c126031913961013b565b90505b92915050565b61076f816040516024016107409190610979565b60408051601f198184030181529190526020810180516001600160e01b031663104c13eb60e21b1790526107b1565b50565b61076f816040516024016107869190610979565b60408051601f198184030181529190526020810180516001600160e01b03166305f3bfab60e11b1790525b80516a636f6e736f6c652e6c6f67602083016000808483855afa5050505050565b634e487b7160e01b600052604160045260246000fd5b604051601f8201601f1916810167ffffffffffffffff81118282101715610811576108116107d2565b604052919050565b600067ffffffffffffffff821115610833576108336107d2565b50601f01601f191660200190565b600082601f83011261085257600080fd5b813561086561086082610819565b6107e8565b81815284602083860101111561087a57600080fd5b816020850160208301376000918101602001919091529392505050565b600080600080608085870312156108ad57600080fd5b843567ffffffffffffffff808211156108c557600080fd5b6108d188838901610841565b95506020870135945060408701359150808211156108ee57600080fd5b6108fa88838901610841565b9350606087013591508082111561091057600080fd5b5061091d87828801610841565b91505092959194509250565b60005b8381101561094457818101518382015260200161092c565b50506000910152565b60008151808452610965816020860160208601610929565b601f01601f19169290920160200192915050565b602081526000610723602083018461094d565b60006020828403121561099e57600080fd5b813567ffffffffffffffff8111156109b557600080fd5b6104ff84828501610841565b600080604083850312156109d457600080fd5b823567ffffffffffffffff8111156109eb57600080fd5b6109f785828601610841565b95602094909401359450505050565b634e487b7160e01b600052603260045260246000fd5b6000602080830181845280855180835260408601915060408160051b870101925083870160005b82811015610a7157603f19888603018452610a5f85835161094d565b94509285019290850190600101610a43565b5092979650505050505050565b6000610a8c61086084610819565b9050828152838383011115610aa057600080fd5b610aae836020830184610929565b9392505050565b600060208284031215610ac757600080fd5b815167ffffffffffffffff811115610ade57600080fd5b8201601f81018413610aef57600080fd5b6104ff84825160208401610a7e565b60008351610b10818460208801610929565b835190830190610b24818360208801610929565b01949350505050565b60008351610b3f818460208801610929565b602f60f81b9083019081528351610b5d816001840160208801610929565b01600101949350505050565b805160208201516bffffffffffffffffffffffff198082169291906014831015610b9d5780818460140360031b1b83161693505b505050919050565b634e487b7160e01b600052601160045260246000fd5b600060018201610bcd57610bcd610ba5565b5060010190565b8181038181111561072657610726610ba5565b600081610bf657610bf6610ba5565b506000190190565b8082018082111561072657610726610ba556fe2e2f6c69622f666f756e6472792d6465766f70732f7372632f6765745f726563656e745f6465706c6f796d656e742e7368a264697066735822122074d06771aa34122f843792d2695fd3b80d817deb493ede3a3a445589bc8fc67364736f6c63430008130033",
        "nonce": "0x16",
        "accessList": []
      },
      "additionalContracts": [],
      "isFixedGasLimit": false
    },
    {
      "hash": "0x56e01f4a617ce80b5ce1cb554c801e1ce6ac579cd3c31241f27c09a3aac6f02c",
      "transactionType": "CALL",
      "contractName": "VRFCoordinatorV2",
      "contractAddress": "0x8103B0A8A00be2DDC778e6e7eaa21791Cd364625",
      "function": "createSubscription():(uint64)",
      "arguments": [],
      "transaction": {
        "type": "0x02",
        "from": "0x057a56e02c068a1ea07f0212f0361b9fa5a4a65a",
        "to": "0x8103b0a8a00be2ddc778e6e7eaa21791cd364625",
        "gas": "0x1558c",
        "value": "0x0",
        "data": "0xa21a23e4",
        "nonce": "0x17",
        "accessList": []
      },
      "additionalContracts": [],
      "isFixedGasLimit": false
    },
    {
      "hash": "0x89a1698b69ce9e3ff0b6c379da06f22efad3cda66219b95249c4c24463bbf8b8",
      "transactionType": "CALL",
      "contractName": "LinkToken",
      "contractAddress": "0x779877A7B0D9E8603169DdbD7836e478b4624789",
      "function": "transferAndCall(address,uint256,bytes):(bool)",
      "arguments": [
        "0x8103B0A8A00be2DDC778e6e7eaa21791Cd364625",
        "3000000000000000000",
        "0x000000000000000000000000000000000000000000000000000000000000132e"
      ],
      "transaction": {
        "type": "0x02",
        "from": "0x057a56e02c068a1ea07f0212f0361b9fa5a4a65a",
        "to": "0x779877a7b0d9e8603169ddbd7836e478b4624789",
        "gas": "0x1b43f",
        "value": "0x0",
        "data": "0x4000aea00000000000000000000000008103b0a8a00be2ddc778e6e7eaa21791cd36462500000000000000000000000000000000000000000000000029a2241af62c000000000000000000000000000000000000000000000000000000000000000000600000000000000000000000000000000000000000000000000000000000000020000000000000000000000000000000000000000000000000000000000000132e",
        "nonce": "0x18",
        "accessList": []
      },
      "additionalContracts": [],
      "isFixedGasLimit": false
    },
    {
      "hash": "0xa52fc473bb71898bd92b1ac4c16c4a82402cc63f42d262f0bfb3b7f38a3c2aaf",
      "transactionType": "CREATE",
      "contractName": "Raffle",
      "contractAddress": "0xb310C72838D4dAeb13874c68c6C7De87376aD396",
      "function": null,
      "arguments": [
        "10000000000000000",
        "30",
        "0x8103B0A8A00be2DDC778e6e7eaa21791Cd364625",
        "0x474e34a077df58807dbe9c96d3c009b23b3c6d0cce433e59bbf5b34f823bc56c",
        "4910",
        "500000"
      ],
      "transaction": {
        "type": "0x02",
        "from": "0x057a56e02c068a1ea07f0212f0361b9fa5a4a65a",
        "gas": "0xdddd5",
        "value": "0x0",
        "data": "0x61016060405234801561001157600080fd5b50604051610ca6380380610ca683398101604081905261003091610087565b6001600160a01b0393909316608081905260a09590955260c0939093524260015560e093909352610100929092526001600160401b03166101205263ffffffff16610140526002805460ff60a01b19169055610112565b60008060008060008060c087890312156100a057600080fd5b86516020880151604089015191975095506001600160a01b03811681146100c657600080fd5b6060880151608089015191955093506001600160401b03811681146100ea57600080fd5b60a088015190925063ffffffff8116811461010457600080fd5b809150509295509295509295565b60805160a05160c05160e051610100516101205161014051610b2c61017a600039600061050a015260006104d3015260006104ad015260006105480152600061037301526000818161014c01526102820152600081816101fe01526102400152610b2c6000f3fe6080604052600436106100915760003560e01c8063535bf50f11610059578063535bf50f1461013d5780635e6c102e146101705780636c7c8f171461019e578063c1c244e8146101be578063e55ae4e8146101d357600080fd5b80630ea3df3814610096578063115cbaf5146100ba5780631fe543e3146100e15780632cfcc53914610103578063473f1ddc1461010b575b600080fd5b3480156100a257600080fd5b506000545b6040519081526020015b60405180910390f35b3480156100c657600080fd5b50600254600160a01b900460ff166040516100b191906107e5565b3480156100ed57600080fd5b506101016100fc366004610854565b6101f3565b005b610101610280565b34801561011757600080fd5b506002546001600160a01b03165b6040516001600160a01b0390911681526020016100b1565b34801561014957600080fd5b507f00000000000000000000000000000000000000000000000000000000000000006100a7565b34801561017c57600080fd5b5061019061018b366004610906565b61036b565b6040516100b192919061099b565b3480156101aa57600080fd5b506101016101b93660046109f3565b610419565b3480156101ca57600080fd5b506001546100a7565b3480156101df57600080fd5b506101256101ee366004610a65565b6105e9565b336001600160a01b037f000000000000000000000000000000000000000000000000000000000000000016146102725760405163073e64fd60e21b81523360048201526001600160a01b037f00000000000000000000000000000000000000000000000000000000000000001660248201526044015b60405180910390fd5b61027c8282610618565b5050565b7f00000000000000000000000000000000000000000000000000000000000000003410156102c15760405163246b904d60e01b815260040160405180910390fd5b6000600254600160a01b900460ff1660018111156102e1576102e16107cf565b146102ff5760405163349289c560e21b815260040160405180910390fd5b600080546001810182558180527f290decd9548b62a8d60345a988386fc84ba6bc95484008f6362f93160ef3e5630180546001600160a01b0319163390811790915560405190917f819fbd717c9d0b421352c5116a644ca68ba176960c33f406f08d98a27370ca2791a2565b6000606060007f0000000000000000000000000000000000000000000000000000000000000000600154426103a09190610a7e565b101590506000600260149054906101000a900460ff1660018111156103c7576103c76107cf565b600054901591504715159015158380156103de5750825b80156103e75750815b80156103f05750805b6040805180820190915260048152630307830360e41b6020820152909890975095505050505050565b60006104336040518060200160405280600081525061036b565b5090508061048957600054600254479190600160a01b900460ff16600181111561045f5761045f6107cf565b604051631d46b04360e11b8152600481019390935260248301919091526044820152606401610269565b60028054600160a01b60ff60a01b199091161790556040516305d3b1d360e41b81527f000000000000000000000000000000000000000000000000000000000000000060048201527f000000000000000000000000000000000000000000000000000000000000000067ffffffffffffffff166024820152600360448201527f000000000000000000000000000000000000000000000000000000000000000063ffffffff166064820152600160848201526000906001600160a01b037f00000000000000000000000000000000000000000000000000000000000000001690635d3b1d309060a4016020604051808303816000875af1158015610591573d6000803e3d6000fd5b505050506040513d601f19601f820116820180604052508101906105b59190610aa5565b60405190915081907fcd6e45c8998311cab7e9d4385596cac867e20a0587194b954fa3a731c93ce78b90600090a250505050565b60008082815481106105fd576105fd610abe565b6000918252602090912001546001600160a01b031692915050565b6000805482518390839061062e5761062e610abe565b60200260200101516106409190610ad4565b9050600080828154811061065657610656610abe565b600091825260208083209190910154600280546001600160a81b0319166001600160a01b039092169182179055604080518481529283019081905291519093506106a1929190610755565b50426001556040516001600160a01b038216907fb112587e57bfa970257f3d54fc52859c6300f6bd7a982462c320fed45c2530ed90600090a26000816001600160a01b03164760405160006040518083038185875af1925050503d8060008114610727576040519150601f19603f3d011682016040523d82523d6000602084013e61072c565b606091505b505090508061074e5760405163a1d04b3960e01b815260040160405180910390fd5b5050505050565b8280548282559060005260206000209081019282156107aa579160200282015b828111156107aa57825182546001600160a01b0319166001600160a01b03909116178255602090920191600190910190610775565b506107b69291506107ba565b5090565b5b808211156107b657600081556001016107bb565b634e487b7160e01b600052602160045260246000fd5b602081016002831061080757634e487b7160e01b600052602160045260246000fd5b91905290565b634e487b7160e01b600052604160045260246000fd5b604051601f8201601f1916810167ffffffffffffffff8111828210171561084c5761084c61080d565b604052919050565b6000806040838503121561086757600080fd5b8235915060208084013567ffffffffffffffff8082111561088757600080fd5b818601915086601f83011261089b57600080fd5b8135818111156108ad576108ad61080d565b8060051b91506108be848301610823565b81815291830184019184810190898411156108d857600080fd5b938501935b838510156108f6578435825293850193908501906108dd565b8096505050505050509250929050565b6000602080838503121561091957600080fd5b823567ffffffffffffffff8082111561093157600080fd5b818501915085601f83011261094557600080fd5b8135818111156109575761095761080d565b610969601f8201601f19168501610823565b9150808252868482850101111561097f57600080fd5b8084840185840137600090820190930192909252509392505050565b821515815260006020604081840152835180604085015260005b818110156109d1578581018301518582016060015282016109b5565b506000606082860101526060601f19601f830116850101925050509392505050565b60008060208385031215610a0657600080fd5b823567ffffffffffffffff80821115610a1e57600080fd5b818501915085601f830112610a3257600080fd5b813581811115610a4157600080fd5b866020828501011115610a5357600080fd5b60209290920196919550909350505050565b600060208284031215610a7757600080fd5b5035919050565b81810381811115610a9f57634e487b7160e01b600052601160045260246000fd5b92915050565b600060208284031215610ab757600080fd5b5051919050565b634e487b7160e01b600052603260045260246000fd5b600082610af157634e487b7160e01b600052601260045260246000fd5b50069056fea26469706673582212207519d9fbf4f161bd052a5831050442bdaf019e5c20e1a8f82c578ce1c0ace63164736f6c63430008130033000000000000000000000000000000000000000000000000002386f26fc10000000000000000000000000000000000000000000000000000000000000000001e0000000000000000000000008103b0a8a00be2ddc778e6e7eaa21791cd364625474e34a077df58807dbe9c96d3c009b23b3c6d0cce433e59bbf5b34f823bc56c000000000000000000000000000000000000000000000000000000000000132e000000000000000000000000000000000000000000000000000000000007a120",
        "nonce": "0x19",
        "accessList": []
      },
      "additionalContracts": [],
      "isFixedGasLimit": false
    },
    {
      "hash": "0xb4ebba20ceb51cd0e39ea566ce8faf013b6537b10503229ce2e64e4ca3b2b727",
      "transactionType": "CALL",
      "contractName": "VRFCoordinatorV2",
      "contractAddress": "0x8103B0A8A00be2DDC778e6e7eaa21791Cd364625",
      "function": "addConsumer(uint64,address)",
      "arguments": [
        "4910",
        "0xb310C72838D4dAeb13874c68c6C7De87376aD396"
      ],
      "transaction": {
        "type": "0x02",
        "from": "0x057a56e02c068a1ea07f0212f0361b9fa5a4a65a",
        "to": "0x8103b0a8a00be2ddc778e6e7eaa21791cd364625",
        "gas": "0x21eb0",
        "value": "0x0",
        "data": "0x7341c10c000000000000000000000000000000000000000000000000000000000000132e000000000000000000000000b310c72838d4daeb13874c68c6c7de87376ad396",
        "nonce": "0x1a",
        "accessList": []
      },
      "additionalContracts": [],
      "isFixedGasLimit": false
    }
  ],
  "receipts": [
    {
      "transactionHash": "0xedc82a6b9f49b5e5c076b173f5e584a376e82548f8aab531ff4c94cdec0a3538",
      "transactionIndex": "0x5",
      "blockHash": "0xdb90d450a606f66f027f4d46269130ba879f752091a6a2f8fc17d1350a55627c",
      "blockNumber": "0x400463",
      "from": "0x057a56e02C068A1Ea07F0212F0361b9Fa5a4a65a",
      "to": null,
      "cumulativeGasUsed": "0x5ec4ac",
      "gasUsed": "0xb55e6",
      "contractAddress": "0xb0b6b5Fd05c3DF3Aa46e41453FCCd442275e70fb",
      "logs": [],
      "status": "0x1",
      "logsBloom": "0x00000000000000000000000000000000000000000000000000000000000000000000000000000000000000000000000000000000000000000000000000000000000000000000000000000000000000000000000000000000000000000000000000000000000000000000000000000000000000000000000000000000000000000000000000000000000000000000000000000000000000000000000000000000000000000000000000000000000000000000000000000000000000000000000000000000000000000000000000000000000000000000000000000000000000000000000000000000000000000000000000000000000000000000000000000000",
      "type": "0x2",
      "effectiveGasPrice": "0xb2d05e22"
    },
    {
      "transactionHash": "0x56e01f4a617ce80b5ce1cb554c801e1ce6ac579cd3c31241f27c09a3aac6f02c",
      "transactionIndex": "0x6",
      "blockHash": "0xdb90d450a606f66f027f4d46269130ba879f752091a6a2f8fc17d1350a55627c",
      "blockNumber": "0x400463",
      "from": "0x057a56e02C068A1Ea07F0212F0361b9Fa5a4a65a",
      "to": "0x8103B0A8A00be2DDC778e6e7eaa21791Cd364625",
      "cumulativeGasUsed": "0x5fae36",
      "gasUsed": "0xe98a",
      "contractAddress": null,
      "logs": [
        {
          "address": "0x8103B0A8A00be2DDC778e6e7eaa21791Cd364625",
          "topics": [
            "0x464722b4166576d3dcbba877b999bc35cf911f4eaf434b7eba68fa113951d0bf",
            "0x000000000000000000000000000000000000000000000000000000000000132e"
          ],
          "data": "0x000000000000000000000000057a56e02c068a1ea07f0212f0361b9fa5a4a65a",
          "blockHash": "0xdb90d450a606f66f027f4d46269130ba879f752091a6a2f8fc17d1350a55627c",
          "blockNumber": "0x400463",
          "transactionHash": "0x56e01f4a617ce80b5ce1cb554c801e1ce6ac579cd3c31241f27c09a3aac6f02c",
          "transactionIndex": "0x6",
          "logIndex": "0x7",
          "removed": false
        }
      ],
      "status": "0x1",
      "logsBloom": "0x00000000000000000000010000000000000000000000000000a0000000000000010000000000000000000000000000000000000000000000000000000000000000000000000000000000000000000000000000000000000000000000000000000000000000000000000000000000000000000000000000000000000000000000000000000c000020000000000000000000000000000000000000000000000000000000000000000000000000000000000000000000000000000000000000000000000000000000200000000000000000000000000000000000000000000000000000000000800000000000000000000000000000000000000000000000000000",
      "type": "0x2",
      "effectiveGasPrice": "0xb2d05e22"
    },
    {
      "transactionHash": "0x89a1698b69ce9e3ff0b6c379da06f22efad3cda66219b95249c4c24463bbf8b8",
      "transactionIndex": "0x7",
      "blockHash": "0xdb90d450a606f66f027f4d46269130ba879f752091a6a2f8fc17d1350a55627c",
      "blockNumber": "0x400463",
      "from": "0x057a56e02C068A1Ea07F0212F0361b9Fa5a4a65a",
      "to": "0x779877A7B0D9E8603169DdbD7836e478b4624789",
      "cumulativeGasUsed": "0x60d880",
      "gasUsed": "0x12a4a",
      "contractAddress": null,
      "logs": [
        {
          "address": "0x779877A7B0D9E8603169DdbD7836e478b4624789",
          "topics": [
            "0xddf252ad1be2c89b69c2b068fc378daa952ba7f163c4a11628f55a4df523b3ef",
            "0x000000000000000000000000057a56e02c068a1ea07f0212f0361b9fa5a4a65a",
            "0x0000000000000000000000008103b0a8a00be2ddc778e6e7eaa21791cd364625"
          ],
          "data": "0x00000000000000000000000000000000000000000000000029a2241af62c0000",
          "blockHash": "0xdb90d450a606f66f027f4d46269130ba879f752091a6a2f8fc17d1350a55627c",
          "blockNumber": "0x400463",
          "transactionHash": "0x89a1698b69ce9e3ff0b6c379da06f22efad3cda66219b95249c4c24463bbf8b8",
          "transactionIndex": "0x7",
          "logIndex": "0x8",
          "removed": false
        },
        {
          "address": "0x779877A7B0D9E8603169DdbD7836e478b4624789",
          "topics": [
            "0xe19260aff97b920c7df27010903aeb9c8d2be5d310a2c67824cf3f15396e4c16",
            "0x000000000000000000000000057a56e02c068a1ea07f0212f0361b9fa5a4a65a",
            "0x0000000000000000000000008103b0a8a00be2ddc778e6e7eaa21791cd364625"
          ],
          "data": "0x00000000000000000000000000000000000000000000000029a2241af62c000000000000000000000000000000000000000000000000000000000000000000400000000000000000000000000000000000000000000000000000000000000020000000000000000000000000000000000000000000000000000000000000132e",
          "blockHash": "0xdb90d450a606f66f027f4d46269130ba879f752091a6a2f8fc17d1350a55627c",
          "blockNumber": "0x400463",
          "transactionHash": "0x89a1698b69ce9e3ff0b6c379da06f22efad3cda66219b95249c4c24463bbf8b8",
          "transactionIndex": "0x7",
          "logIndex": "0x9",
          "removed": false
        },
        {
          "address": "0x8103B0A8A00be2DDC778e6e7eaa21791Cd364625",
          "topics": [
            "0xd39ec07f4e209f627a4c427971473820dc129761ba28de8906bd56f57101d4f8",
            "0x000000000000000000000000000000000000000000000000000000000000132e"
          ],
          "data": "0x000000000000000000000000000000000000000000000000000000000000000000000000000000000000000000000000000000000000000029a2241af62c0000",
          "blockHash": "0xdb90d450a606f66f027f4d46269130ba879f752091a6a2f8fc17d1350a55627c",
          "blockNumber": "0x400463",
          "transactionHash": "0x89a1698b69ce9e3ff0b6c379da06f22efad3cda66219b95249c4c24463bbf8b8",
          "transactionIndex": "0x7",
          "logIndex": "0xa",
          "removed": false
        }
      ],
      "status": "0x1",
      "logsBloom": "0x00000014000000000000000000000000000000000000000200a0000002100000000000000000800000000000000000000000000000000000000000000000000000000000000000000000000800000000000000000000000000002000000000000000000000000000000000000000000000000000400000000000001000000000000000000c000020000000000000800010000020000000020000000000000000000000000000000000000000000000000000000000000000000400000000000000000002000000000000000000000000000000000000000100000000000000000000000000800000000000000000080000000000000000000000000000000000",
      "type": "0x2",
      "effectiveGasPrice": "0xb2d05e22"
    },
    {
      "transactionHash": "0xa52fc473bb71898bd92b1ac4c16c4a82402cc63f42d262f0bfb3b7f38a3c2aaf",
      "transactionIndex": "0x8",
      "blockHash": "0xdb90d450a606f66f027f4d46269130ba879f752091a6a2f8fc17d1350a55627c",
      "blockNumber": "0x400463",
      "from": "0x057a56e02C068A1Ea07F0212F0361b9Fa5a4a65a",
      "to": null,
      "cumulativeGasUsed": "0x6b83fc",
      "gasUsed": "0xaab7c",
      "contractAddress": "0xb310C72838D4dAeb13874c68c6C7De87376aD396",
      "logs": [],
      "status": "0x1",
      "logsBloom": "0x00000000000000000000000000000000000000000000000000000000000000000000000000000000000000000000000000000000000000000000000000000000000000000000000000000000000000000000000000000000000000000000000000000000000000000000000000000000000000000000000000000000000000000000000000000000000000000000000000000000000000000000000000000000000000000000000000000000000000000000000000000000000000000000000000000000000000000000000000000000000000000000000000000000000000000000000000000000000000000000000000000000000000000000000000000000",
      "type": "0x2",
      "effectiveGasPrice": "0xb2d05e22"
    },
    {
      "transactionHash": "0xb4ebba20ceb51cd0e39ea566ce8faf013b6537b10503229ce2e64e4ca3b2b727",
      "transactionIndex": "0x9",
      "blockHash": "0xdb90d450a606f66f027f4d46269130ba879f752091a6a2f8fc17d1350a55627c",
      "blockNumber": "0x400463",
      "from": "0x057a56e02C068A1Ea07F0212F0361b9Fa5a4a65a",
      "to": "0x8103B0A8A00be2DDC778e6e7eaa21791Cd364625",
      "cumulativeGasUsed": "0x6cf70e",
      "gasUsed": "0x17312",
      "contractAddress": null,
      "logs": [
        {
          "address": "0x8103B0A8A00be2DDC778e6e7eaa21791Cd364625",
          "topics": [
            "0x43dc749a04ac8fb825cbd514f7c0e13f13bc6f2ee66043b76629d51776cff8e0",
            "0x000000000000000000000000000000000000000000000000000000000000132e"
          ],
          "data": "0x000000000000000000000000b310c72838d4daeb13874c68c6c7de87376ad396",
          "blockHash": "0xdb90d450a606f66f027f4d46269130ba879f752091a6a2f8fc17d1350a55627c",
          "blockNumber": "0x400463",
          "transactionHash": "0xb4ebba20ceb51cd0e39ea566ce8faf013b6537b10503229ce2e64e4ca3b2b727",
          "transactionIndex": "0x9",
          "logIndex": "0xb",
          "removed": false
        }
      ],
      "status": "0x1",
      "logsBloom": "0x00000000000000000000000000000000000000000000000000a0000000000000000000000000000000000000000000000000000000000000000000000000000000000000000000000000000000000000000000000000000000000000000000000000000000008000000000000000000000000000000000000000000000000000000000000c000020000000000000000000000000000000000000000000000000000000000000000000000080000000000000000000000000000000000000000000000000000000000000000000000000000000000000000000020000000000000000000000800000000000000000000000000000000000000000000000000000",
      "type": "0x2",
      "effectiveGasPrice": "0xb2d05e22"
    }
  ],
  "libraries": [
    "lib/foundry-devops/src/DevOpsTools.sol:DevOpsTools:0xb0b6b5fd05c3df3aa46e41453fccd442275e70fb"
  ],
  "pending": [],
  "returns": {
    "1": {
      "internal_type": "contract HelperConfig",
      "value": "0xC7f2Cf4845C6db0e1a1e91ED41Bcd0FcC1b0E141"
    },
    "0": {
      "internal_type": "contract Raffle",
      "value": "0xb310C72838D4dAeb13874c68c6C7De87376aD396"
    }
  },
  "timestamp": 1693456652,
  "chain": 11155111,
  "multi": false,
  "commit": "d46c3e8"
}